{
  "contractName": "TodoList",
  "abi": [
    {
      "constant": true,
      "inputs": [],
      "name": "taskCount",
      "outputs": [
        {
          "name": "",
          "type": "uint256"
        }
      ],
      "payable": false,
      "stateMutability": "view",
      "type": "function",
      "signature": "0xb6cb58a5"
    }
  ],
  "bytecode": "0x608060405260008055348015601357600080fd5b50609e806100226000396000f3fe608060405260043610603f576000357c0100000000000000000000000000000000000000000000000000000000900463ffffffff168063b6cb58a5146044575b600080fd5b348015604f57600080fd5b506056606c565b6040518082815260200191505060405180910390f35b6000548156fea165627a7a72305820cf1f2e7364efb6f1359eba6973b3cb67b0ee09f06958537523a2629cfb4a37750029",
  "source": "// SPDX-License-Identifier: MIT\r\n\r\npragma solidity ^0.5.0;\r\n\r\ncontract TodoList{\r\n    // It is the state variable, Whenever this changes, the state of the contract/ Blockchain changes\r\n    // The scope of this variable belongs to the entire smart contract\r\n    // public - read the value from the smart contract\r\n\r\n    uint public taskCount = 0;\r\n\r\n\r\n\r\n\r\n}\r\n",
  "sourcePath": "C:/Users/Sarthak/Desktop/Blockchain/eth-todo-list/contracts/TodoList.sol",
  "compiler": {
    "name": "solc",
    "version": "0.5.0+commit.1d4f565a.Emscripten.clang"
  },
  "schemaVersion": "3.0.1",
  "updatedAt": "2024-08-09T07:19:57.720Z",
  "devdoc": {
    "methods": {}
  },
  "userdoc": {
    "methods": {}
  }
}